{
  "address": "0x13688Af8B4849829E2a86015aE69ab4dd10E2EEF",
  "abi": [
    {
      "anonymous": false,
      "inputs": [
        {
          "indexed": true,
          "internalType": "address",
          "name": "target",
          "type": "address"
        },
        {
          "indexed": false,
          "internalType": "address",
          "name": "cloneAddress",
          "type": "address"
        }
      ],
      "name": "NewClone",
      "type": "event"
    },
    {
      "anonymous": false,
      "inputs": [
        {
          "indexed": false,
          "internalType": "uint256",
          "name": "index",
          "type": "uint256"
        },
        {
          "indexed": false,
          "internalType": "address",
          "name": "deployer",
          "type": "address"
        },
        {
          "indexed": false,
          "internalType": "address",
          "name": "distributorAddress",
          "type": "address"
        },
        {
          "indexed": false,
          "internalType": "address",
          "name": "token",
          "type": "address"
        },
        {
          "indexed": false,
          "internalType": "bytes32",
          "name": "merkleRoot",
          "type": "bytes32"
        }
      ],
      "name": "NewDistributor",
      "type": "event"
    },
    {
      "inputs": [
        {
          "internalType": "address",
          "name": "target",
          "type": "address"
        }
      ],
      "name": "clone",
      "outputs": [
        {
          "internalType": "address",
          "name": "",
          "type": "address"
        }
      ],
      "stateMutability": "nonpayable",
      "type": "function"
    },
    {
      "inputs": [
        {
          "internalType": "uint256",
          "name": "index",
          "type": "uint256"
        },
        {
          "internalType": "address",
          "name": "distributorAddress",
          "type": "address"
        },
        {
          "internalType": "address",
          "name": "token",
          "type": "address"
        },
        {
          "internalType": "bytes32",
          "name": "merkleRoot",
          "type": "bytes32"
        }
      ],
      "name": "deploy",
      "outputs": [
        {
          "internalType": "address",
          "name": "",
          "type": "address"
        }
      ],
      "stateMutability": "nonpayable",
      "type": "function"
    }
  ],
  "transactionHash": "0xc32b60bd73b4a6ab778241c6eeed011b811862e881b6e0a4750c12505f8f2c28",
  "args": [],
  "solcInputHash": "13ccb1647bc47202c890f6cd238f8dc9",
  "bytecode": "0x608060405234801561001057600080fd5b5061040c806100206000396000f3fe608060405234801561001057600080fd5b50600436106100365760003560e01c80638124b78e1461003b578063a7847a0414610097575b600080fd5b61006e6004803603602081101561005157600080fd5b503573ffffffffffffffffffffffffffffffffffffffff166100e0565b6040805173ffffffffffffffffffffffffffffffffffffffff9092168252519081900360200190f35b61006e600480360360808110156100ad57600080fd5b5080359073ffffffffffffffffffffffffffffffffffffffff60208201358116916040810135909116906060013561015a565b6000806100ec836102e3565b90508273ffffffffffffffffffffffffffffffffffffffff167f3bf919a220a0f12ddcaf77fd06ffa4b9c728617774936f0d78b452010319c82482604051808273ffffffffffffffffffffffffffffffffffffffff16815260200191505060405180910390a290505b919050565b600080610166856102e3565b90508073ffffffffffffffffffffffffffffffffffffffff1663be13f47c85856040518363ffffffff1660e01b8152600401808373ffffffffffffffffffffffffffffffffffffffff16815260200182815260200192505050600060405180830381600087803b1580156101d957600080fd5b505af11580156101ed573d6000803e3d6000fd5b5050604080517ff2fde38b000000000000000000000000000000000000000000000000000000008152336004820152905173ffffffffffffffffffffffffffffffffffffffff8516935063f2fde38b9250602480830192600092919082900301818387803b15801561025e57600080fd5b505af1158015610272573d6000803e3d6000fd5b50506040805189815233602082015273ffffffffffffffffffffffffffffffffffffffff80861682840152881660608201526080810187905290517fe330758a3d0c10a66f530077023dde1e5f9f1c24e6b3702ed0624203ee00efd793509081900360a0019150a195945050505050565b60006102ee826102f4565b92915050565b60006040517f3d602d80600a3d3981f3363d3d373d3d3d363d7300000000000000000000000081528260601b60148201527f5af43d82803e903d91602b57fd5bf3000000000000000000000000000000000060288201526037816000f091505073ffffffffffffffffffffffffffffffffffffffff811661015557604080517f08c379a000000000000000000000000000000000000000000000000000000000815260206004820152601660248201527f455243313136373a20637265617465206661696c656400000000000000000000604482015290519081900360640190fdfea2646970667358221220fc119f2824f3c07c040b516901c7db75a464018569a6dedcdc4a2a605110eb6764736f6c634300060c0033",
  "devdoc": {
    "kind": "dev",
    "methods": {},
    "version": 1
  },
  "userdoc": {
    "kind": "user",
    "methods": {},
    "version": 1
  },
  "storageLayout": {
    "storage": [],
    "types": null
  }
}