{
  "address": "0x9dDbc7f0a14a6e30AfE120a37275794f7633D28E",
  "abi": [
    {
      "inputs": [
        {
          "internalType": "address",
          "name": "_wNative",
          "type": "address"
        }
      ],
      "stateMutability": "nonpayable",
      "type": "constructor"
    },
    {
      "anonymous": false,
      "inputs": [
        {
          "indexed": true,
          "internalType": "address",
          "name": "target",
          "type": "address"
        },
        {
          "indexed": false,
          "internalType": "address",
          "name": "cloneAddress",
          "type": "address"
        }
      ],
      "name": "NewClone",
      "type": "event"
    },
    {
      "anonymous": false,
      "inputs": [
        {
          "indexed": false,
          "internalType": "uint256",
          "name": "index",
          "type": "uint256"
        },
        {
          "indexed": false,
          "internalType": "address",
          "name": "deployer",
          "type": "address"
        },
        {
          "indexed": false,
          "internalType": "address",
          "name": "distributor",
          "type": "address"
        },
        {
          "indexed": false,
          "internalType": "address",
          "name": "token",
          "type": "address"
        },
        {
          "indexed": false,
          "internalType": "uint256",
          "name": "amount",
          "type": "uint256"
        },
        {
          "indexed": false,
          "internalType": "bytes32",
          "name": "merkleRoot",
          "type": "bytes32"
        }
      ],
      "name": "NewDistributor",
      "type": "event"
    },
    {
      "inputs": [
        {
          "internalType": "address",
          "name": "target",
          "type": "address"
        }
      ],
      "name": "clone",
      "outputs": [
        {
          "internalType": "address",
          "name": "",
          "type": "address"
        }
      ],
      "stateMutability": "nonpayable",
      "type": "function"
    },
    {
      "inputs": [
        {
          "internalType": "uint256",
          "name": "index",
          "type": "uint256"
        },
        {
          "internalType": "address",
          "name": "distributor",
          "type": "address"
        },
        {
          "internalType": "address",
          "name": "token",
          "type": "address"
        },
        {
          "internalType": "uint256",
          "name": "amount",
          "type": "uint256"
        },
        {
          "internalType": "bytes32",
          "name": "merkleRoot",
          "type": "bytes32"
        }
      ],
      "name": "deploy",
      "outputs": [
        {
          "internalType": "address",
          "name": "",
          "type": "address"
        }
      ],
      "stateMutability": "payable",
      "type": "function"
    },
    {
      "inputs": [],
      "name": "wNative",
      "outputs": [
        {
          "internalType": "address",
          "name": "",
          "type": "address"
        }
      ],
      "stateMutability": "view",
      "type": "function"
    },
    {
      "stateMutability": "payable",
      "type": "receive"
    }
  ],
  "transactionHash": "0x83a9270296d8986d008fe553fcb63009b35dd0e48570420fe946bfef2355466f",
  "args": [
    "0xa00744882684c3e4747faefd68d283ea44099d03"
  ],
  "solcInputHash": "09d29229249fbca6ba5d81e6868b0186",
  "bytecode": "0x60a060405234801561001057600080fd5b50604051610c48380380610c488339818101604052602081101561003357600080fd5b5051606081901b6001600160601b0319166080526001600160a01b0316610bd761007160003980610113528061016152806102155250610bd76000f3fe6080604052600436106100385760003560e01c80632d68efc9146100445780635172a3e7146100825780638124b78e146100d15761003f565b3661003f57005b600080fd5b34801561005057600080fd5b50610059610111565b6040805173ffffffffffffffffffffffffffffffffffffffff9092168252519081900360200190f35b610059600480360360a081101561009857600080fd5b5080359073ffffffffffffffffffffffffffffffffffffffff602082013581169160408101359091169060608101359060800135610135565b3480156100dd57600080fd5b50610059600480360360208110156100f457600080fd5b503573ffffffffffffffffffffffffffffffffffffffff16610410565b7f000000000000000000000000000000000000000000000000000000000000000081565b6000806101418661048a565b90508073ffffffffffffffffffffffffffffffffffffffff16636133f9857f000000000000000000000000000000000000000000000000000000000000000087866040518463ffffffff1660e01b8152600401808473ffffffffffffffffffffffffffffffffffffffff1681526020018373ffffffffffffffffffffffffffffffffffffffff1681526020018281526020019350505050600060405180830381600087803b1580156101f257600080fd5b505af1158015610206573d6000803e3d6000fd5b505050506000841115610316577f000000000000000000000000000000000000000000000000000000000000000073ffffffffffffffffffffffffffffffffffffffff168573ffffffffffffffffffffffffffffffffffffffff16146102a95761028873ffffffffffffffffffffffffffffffffffffffff861633308761049b565b6102a973ffffffffffffffffffffffffffffffffffffffff86168286610536565b8073ffffffffffffffffffffffffffffffffffffffff1663b6b55f2534866040518363ffffffff1660e01b8152600401808281526020019150506000604051808303818588803b1580156102fc57600080fd5b505af1158015610310573d6000803e3d6000fd5b50505050505b604080517ff2fde38b000000000000000000000000000000000000000000000000000000008152336004820152905173ffffffffffffffffffffffffffffffffffffffff83169163f2fde38b91602480830192600092919082900301818387803b15801561038357600080fd5b505af1158015610397573d6000803e3d6000fd5b5050604080518a815233602082015273ffffffffffffffffffffffffffffffffffffffff80861682840152891660608201526080810188905260a0810187905290517f190a9e7bc2dd55fccff0d216ae9ba7b901f80ed8ac653714caf2e81c91a6ece593509081900360c0019150a19695505050505050565b60008061041c8361048a565b90508273ffffffffffffffffffffffffffffffffffffffff167f3bf919a220a0f12ddcaf77fd06ffa4b9c728617774936f0d78b452010319c82482604051808273ffffffffffffffffffffffffffffffffffffffff16815260200191505060405180910390a290505b919050565b6000610495826106c9565b92915050565b6040805173ffffffffffffffffffffffffffffffffffffffff80861660248301528416604482015260648082018490528251808303909101815260849091019091526020810180517bffffffffffffffffffffffffffffffffffffffffffffffffffffffff167f23b872dd000000000000000000000000000000000000000000000000000000001790526105309085906107ab565b50505050565b8015806105e25750604080517fdd62ed3e00000000000000000000000000000000000000000000000000000000815230600482015273ffffffffffffffffffffffffffffffffffffffff848116602483015291519185169163dd62ed3e91604480820192602092909190829003018186803b1580156105b457600080fd5b505afa1580156105c8573d6000803e3d6000fd5b505050506040513d60208110156105de57600080fd5b5051155b610637576040517f08c379a0000000000000000000000000000000000000000000000000000000008152600401808060200182810382526036815260200180610b6c6036913960400191505060405180910390fd5b6040805173ffffffffffffffffffffffffffffffffffffffff8416602482015260448082018490528251808303909101815260649091019091526020810180517bffffffffffffffffffffffffffffffffffffffffffffffffffffffff167f095ea7b3000000000000000000000000000000000000000000000000000000001790526106c49084906107ab565b505050565b60006040517f3d602d80600a3d3981f3363d3d373d3d3d363d7300000000000000000000000081528260601b60148201527f5af43d82803e903d91602b57fd5bf3000000000000000000000000000000000060288201526037816000f091505073ffffffffffffffffffffffffffffffffffffffff811661048557604080517f08c379a000000000000000000000000000000000000000000000000000000000815260206004820152601660248201527f455243313136373a20637265617465206661696c656400000000000000000000604482015290519081900360640190fd5b606061080d826040518060400160405280602081526020017f5361666545524332303a206c6f772d6c6576656c2063616c6c206661696c65648152508573ffffffffffffffffffffffffffffffffffffffff166108839092919063ffffffff16565b8051909150156106c45780806020019051602081101561082c57600080fd5b50516106c4576040517f08c379a000000000000000000000000000000000000000000000000000000000815260040180806020018281038252602a815260200180610b42602a913960400191505060405180910390fd5b6060610892848460008561089c565b90505b9392505050565b6060824710156108f7576040517f08c379a0000000000000000000000000000000000000000000000000000000008152600401808060200182810382526026815260200180610b1c6026913960400191505060405180910390fd5b61090085610a57565b61096b57604080517f08c379a000000000000000000000000000000000000000000000000000000000815260206004820152601d60248201527f416464726573733a2063616c6c20746f206e6f6e2d636f6e7472616374000000604482015290519081900360640190fd5b600060608673ffffffffffffffffffffffffffffffffffffffff1685876040518082805190602001908083835b602083106109d557805182527fffffffffffffffffffffffffffffffffffffffffffffffffffffffffffffffe09092019160209182019101610998565b6001836020036101000a03801982511681845116808217855250505050505090500191505060006040518083038185875af1925050503d8060008114610a37576040519150601f19603f3d011682016040523d82523d6000602084013e610a3c565b606091505b5091509150610a4c828286610a5d565b979650505050505050565b3b151590565b60608315610a6c575081610895565b825115610a7c5782518084602001fd5b816040517f08c379a00000000000000000000000000000000000000000000000000000000081526004018080602001828103825283818151815260200191508051906020019080838360005b83811015610ae0578181015183820152602001610ac8565b50505050905090810190601f168015610b0d5780820380516001836020036101000a031916815260200191505b509250505060405180910390fdfe416464726573733a20696e73756666696369656e742062616c616e636520666f722063616c6c5361666545524332303a204552433230206f7065726174696f6e20646964206e6f7420737563636565645361666545524332303a20617070726f76652066726f6d206e6f6e2d7a65726f20746f206e6f6e2d7a65726f20616c6c6f77616e6365a2646970667358221220bf4376462513d98c7c08a37e4951bc4c147fb950ccd799ed1660a2a6d1dc452864736f6c634300060c0033",
  "devdoc": {
    "kind": "dev",
    "methods": {},
    "version": 1
  },
  "userdoc": {
    "kind": "user",
    "methods": {},
    "version": 1
  },
  "storageLayout": {
    "storage": [],
    "types": null
  }
}