{
  "address": "0x54c94c4384f71A8a69355D5384b976Ce4dED9955",
  "abi": [
    {
      "anonymous": false,
      "inputs": [
        {
          "indexed": false,
          "internalType": "uint256",
          "name": "index",
          "type": "uint256"
        },
        {
          "indexed": false,
          "internalType": "address",
          "name": "account",
          "type": "address"
        },
        {
          "indexed": false,
          "internalType": "uint256",
          "name": "tokenId",
          "type": "uint256"
        }
      ],
      "name": "Claimed",
      "type": "event"
    },
    {
      "anonymous": false,
      "inputs": [
        {
          "indexed": true,
          "internalType": "address",
          "name": "previousOwner",
          "type": "address"
        },
        {
          "indexed": true,
          "internalType": "address",
          "name": "newOwner",
          "type": "address"
        }
      ],
      "name": "OwnershipTransferred",
      "type": "event"
    },
    {
      "inputs": [
        {
          "internalType": "uint256",
          "name": "index",
          "type": "uint256"
        },
        {
          "internalType": "address",
          "name": "account",
          "type": "address"
        },
        {
          "internalType": "uint256",
          "name": "tokenId",
          "type": "uint256"
        },
        {
          "internalType": "bytes32[]",
          "name": "merkleProof",
          "type": "bytes32[]"
        }
      ],
      "name": "claim",
      "outputs": [],
      "stateMutability": "nonpayable",
      "type": "function"
    },
    {
      "inputs": [],
      "name": "holder",
      "outputs": [
        {
          "internalType": "address",
          "name": "",
          "type": "address"
        }
      ],
      "stateMutability": "view",
      "type": "function"
    },
    {
      "inputs": [
        {
          "internalType": "address",
          "name": "token_",
          "type": "address"
        },
        {
          "internalType": "address",
          "name": "holder_",
          "type": "address"
        },
        {
          "internalType": "bytes32",
          "name": "merkleRoot_",
          "type": "bytes32"
        }
      ],
      "name": "initialize",
      "outputs": [],
      "stateMutability": "nonpayable",
      "type": "function"
    },
    {
      "inputs": [
        {
          "internalType": "uint256",
          "name": "index",
          "type": "uint256"
        }
      ],
      "name": "isClaimed",
      "outputs": [
        {
          "internalType": "bool",
          "name": "",
          "type": "bool"
        }
      ],
      "stateMutability": "view",
      "type": "function"
    },
    {
      "inputs": [],
      "name": "merkleRoot",
      "outputs": [
        {
          "internalType": "bytes32",
          "name": "",
          "type": "bytes32"
        }
      ],
      "stateMutability": "view",
      "type": "function"
    },
    {
      "inputs": [],
      "name": "owner",
      "outputs": [
        {
          "internalType": "address",
          "name": "",
          "type": "address"
        }
      ],
      "stateMutability": "view",
      "type": "function"
    },
    {
      "inputs": [],
      "name": "renounceOwnership",
      "outputs": [],
      "stateMutability": "nonpayable",
      "type": "function"
    },
    {
      "inputs": [],
      "name": "token",
      "outputs": [
        {
          "internalType": "address",
          "name": "",
          "type": "address"
        }
      ],
      "stateMutability": "view",
      "type": "function"
    },
    {
      "inputs": [
        {
          "internalType": "address",
          "name": "newOwner",
          "type": "address"
        }
      ],
      "name": "transferOwnership",
      "outputs": [],
      "stateMutability": "nonpayable",
      "type": "function"
    }
  ],
  "transactionHash": "0x4153a17b7140f36585f36efe2261d5b2653a141f6fdb4ad01091a91ea157f9b9",
  "args": [],
  "solcInputHash": "a254404910c38330cdf5dd2bd0c3b4ea",
  "bytecode": "0x608060405234801561001057600080fd5b50610e03806100206000396000f3fe608060405234801561001057600080fd5b50600436106100a35760003560e01c80638da5cb5b11610076578063e534155d1161005b578063e534155d1461020a578063f2fde38b14610212578063fc0c546a14610245576100a3565b80638da5cb5b146101a85780639e34070f146101d9576100a3565b80632e7ba6ef146100a85780632eb4a7ab146101435780636133f9851461015d578063715018a6146101a0575b600080fd5b610141600480360360808110156100be57600080fd5b81359173ffffffffffffffffffffffffffffffffffffffff602082013516916040820135919081019060808101606082013564010000000081111561010257600080fd5b82018360208201111561011457600080fd5b8035906020019184602083028401116401000000008311171561013657600080fd5b50909250905061024d565b005b61014b61049b565b60408051918252519081900360200190f35b6101416004803603606081101561017357600080fd5b5073ffffffffffffffffffffffffffffffffffffffff8135811691602081013590911690604001356104a1565b6101416105e0565b6101b06106f7565b6040805173ffffffffffffffffffffffffffffffffffffffff9092168252519081900360200190f35b6101f6600480360360208110156101ef57600080fd5b5035610713565b604080519115158252519081900360200190f35b6101b0610739565b6101416004803603602081101561022857600080fd5b503573ffffffffffffffffffffffffffffffffffffffff16610755565b6101b06108f7565b61025685610713565b156102ac576040517f08c379a0000000000000000000000000000000000000000000000000000000008152600401808060200182810382526035815260200180610d6b6035913960400191505060405180910390fd5b6000858585604051602001808481526020018373ffffffffffffffffffffffffffffffffffffffff1660601b81526014018281526020019350505050604051602081830303815290604052805190602001209050610341838380806020026020016040519081016040528093929190818152602001838360200280828437600092019190915250506067549150849050610913565b610396576040517f08c379a000000000000000000000000000000000000000000000000000000000815260040180806020018281038252602e815260200180610d17602e913960400191505060405180910390fd5b61039f866109bc565b606554606654604080517f42842e0e00000000000000000000000000000000000000000000000000000000815273ffffffffffffffffffffffffffffffffffffffff9283166004820152888316602482015260448101889052905191909216916342842e0e91606480830192600092919082900301818387803b15801561042557600080fd5b505af1158015610439573d6000803e3d6000fd5b50506040805189815273ffffffffffffffffffffffffffffffffffffffff8916602082015280820188905290517f4ec90e965519d92681267467f775ada5bd214aa92c0dc93d90a5e880ce9ed0269350908190036060019150a1505050505050565b60675481565b600054610100900460ff16806104ba57506104ba6109e3565b806104c8575060005460ff16155b61051d576040517f08c379a000000000000000000000000000000000000000000000000000000000815260040180806020018281038252602e815260200180610da0602e913960400191505060405180910390fd5b600054610100900460ff1615801561056657600080547fffffffffffffffffffffffffffffffffffffffffffffffffffffffffffffff0061ff0019909116610100171660011790555b61056e6109f4565b6065805473ffffffffffffffffffffffffffffffffffffffff8087167fffffffffffffffffffffffff0000000000000000000000000000000000000000928316179092556066805492861692909116919091179055606782905580156105da576000805461ff00191690555b50505050565b6105e8610ade565b73ffffffffffffffffffffffffffffffffffffffff166106066106f7565b73ffffffffffffffffffffffffffffffffffffffff161461068857604080517f08c379a000000000000000000000000000000000000000000000000000000000815260206004820181905260248201527f4f776e61626c653a2063616c6c6572206973206e6f7420746865206f776e6572604482015290519081900360640190fd5b60335460405160009173ffffffffffffffffffffffffffffffffffffffff16907f8be0079c531659141344cd1fd0a4f28419497f9722a3daafe3b4186f6b6457e0908390a3603380547fffffffffffffffffffffffff0000000000000000000000000000000000000000169055565b60335473ffffffffffffffffffffffffffffffffffffffff1690565b6101008104600090815260686020526040902054600160ff9092169190911b9081161490565b60665473ffffffffffffffffffffffffffffffffffffffff1681565b61075d610ade565b73ffffffffffffffffffffffffffffffffffffffff1661077b6106f7565b73ffffffffffffffffffffffffffffffffffffffff16146107fd57604080517f08c379a000000000000000000000000000000000000000000000000000000000815260206004820181905260248201527f4f776e61626c653a2063616c6c6572206973206e6f7420746865206f776e6572604482015290519081900360640190fd5b73ffffffffffffffffffffffffffffffffffffffff8116610869576040517f08c379a0000000000000000000000000000000000000000000000000000000008152600401808060200182810382526026815260200180610d456026913960400191505060405180910390fd5b60335460405173ffffffffffffffffffffffffffffffffffffffff8084169216907f8be0079c531659141344cd1fd0a4f28419497f9722a3daafe3b4186f6b6457e090600090a3603380547fffffffffffffffffffffffff00000000000000000000000000000000000000001673ffffffffffffffffffffffffffffffffffffffff92909216919091179055565b60655473ffffffffffffffffffffffffffffffffffffffff1681565b600081815b85518110156109b157600086828151811061092f57fe5b6020026020010151905080831161097657828160405160200180838152602001828152602001925050506040516020818303038152906040528051906020012092506109a8565b808360405160200180838152602001828152602001925050506040516020818303038152906040528051906020012092505b50600101610918565b509092149392505050565b610100810460009081526068602052604090208054600160ff9093169290921b9091179055565b60006109ee30610ae2565b15905090565b600054610100900460ff1680610a0d5750610a0d6109e3565b80610a1b575060005460ff16155b610a70576040517f08c379a000000000000000000000000000000000000000000000000000000000815260040180806020018281038252602e815260200180610da0602e913960400191505060405180910390fd5b600054610100900460ff16158015610ab957600080547fffffffffffffffffffffffffffffffffffffffffffffffffffffffffffffff0061ff0019909116610100171660011790555b610ac1610ae8565b610ac9610bc0565b8015610adb576000805461ff00191690555b50565b3390565b3b151590565b600054610100900460ff1680610b015750610b016109e3565b80610b0f575060005460ff16155b610b64576040517f08c379a000000000000000000000000000000000000000000000000000000000815260040180806020018281038252602e815260200180610da0602e913960400191505060405180910390fd5b600054610100900460ff16158015610ac957600080547fffffffffffffffffffffffffffffffffffffffffffffffffffffffffffffff0061ff0019909116610100171660011790558015610adb576000805461ff001916905550565b600054610100900460ff1680610bd95750610bd96109e3565b80610be7575060005460ff16155b610c3c576040517f08c379a000000000000000000000000000000000000000000000000000000000815260040180806020018281038252602e815260200180610da0602e913960400191505060405180910390fd5b600054610100900460ff16158015610c8557600080547fffffffffffffffffffffffffffffffffffffffffffffffffffffffffffffff0061ff0019909116610100171660011790555b6000610c8f610ade565b603380547fffffffffffffffffffffffff00000000000000000000000000000000000000001673ffffffffffffffffffffffffffffffffffffffff8316908117909155604051919250906000907f8be0079c531659141344cd1fd0a4f28419497f9722a3daafe3b4186f6b6457e0908290a3508015610adb576000805461ff00191690555056fe4d65726b6c654469737472696275746f724552433732313a3a636c61696d3a3a20696e76616c69642070726f6f664f776e61626c653a206e6577206f776e657220697320746865207a65726f20616464726573734d65726b6c654469737472696275746f724552433732313a3a636c61696d3a3a2064726f7020616c726561647920636c61696d6564496e697469616c697a61626c653a20636f6e747261637420697320616c726561647920696e697469616c697a6564a26469706673582212202972f6bb2235add6377c638743db450ab635b9c72ebf5d4c372325a3360bfe8364736f6c634300060c0033",
  "devdoc": {
    "kind": "dev",
    "methods": {
      "owner()": {
        "details": "Returns the address of the current owner."
      },
      "renounceOwnership()": {
        "details": "Leaves the contract without owner. It will not be possible to call `onlyOwner` functions anymore. Can only be called by the current owner. NOTE: Renouncing ownership will leave the contract without an owner, thereby removing any functionality that is only available to the owner."
      },
      "transferOwnership(address)": {
        "details": "Transfers ownership of the contract to a new account (`newOwner`). Can only be called by the current owner."
      }
    },
    "version": 1
  },
  "userdoc": {
    "kind": "user",
    "methods": {},
    "version": 1
  },
  "storageLayout": {
    "storage": [
      {
        "astId": 137,
        "contract": "contracts/MerkleDistributorERC721.sol:MerkleDistributorERC721",
        "label": "_initialized",
        "offset": 0,
        "slot": "0",
        "type": "t_bool"
      },
      {
        "astId": 140,
        "contract": "contracts/MerkleDistributorERC721.sol:MerkleDistributorERC721",
        "label": "_initializing",
        "offset": 1,
        "slot": "0",
        "type": "t_bool"
      },
      {
        "astId": 484,
        "contract": "contracts/MerkleDistributorERC721.sol:MerkleDistributorERC721",
        "label": "__gap",
        "offset": 0,
        "slot": "1",
        "type": "t_array(t_uint256)50_storage"
      },
      {
        "astId": 10,
        "contract": "contracts/MerkleDistributorERC721.sol:MerkleDistributorERC721",
        "label": "_owner",
        "offset": 0,
        "slot": "51",
        "type": "t_address"
      },
      {
        "astId": 129,
        "contract": "contracts/MerkleDistributorERC721.sol:MerkleDistributorERC721",
        "label": "__gap",
        "offset": 0,
        "slot": "52",
        "type": "t_array(t_uint256)49_storage"
      },
      {
        "astId": 3018,
        "contract": "contracts/MerkleDistributorERC721.sol:MerkleDistributorERC721",
        "label": "token",
        "offset": 0,
        "slot": "101",
        "type": "t_address"
      },
      {
        "astId": 3021,
        "contract": "contracts/MerkleDistributorERC721.sol:MerkleDistributorERC721",
        "label": "holder",
        "offset": 0,
        "slot": "102",
        "type": "t_address"
      },
      {
        "astId": 3024,
        "contract": "contracts/MerkleDistributorERC721.sol:MerkleDistributorERC721",
        "label": "merkleRoot",
        "offset": 0,
        "slot": "103",
        "type": "t_bytes32"
      },
      {
        "astId": 3028,
        "contract": "contracts/MerkleDistributorERC721.sol:MerkleDistributorERC721",
        "label": "claimedBitMap",
        "offset": 0,
        "slot": "104",
        "type": "t_mapping(t_uint256,t_uint256)"
      }
    ],
    "types": {
      "t_address": {
        "encoding": "inplace",
        "label": "address",
        "numberOfBytes": "20"
      },
      "t_array(t_uint256)49_storage": {
        "base": "t_uint256",
        "encoding": "inplace",
        "label": "uint256[49]",
        "numberOfBytes": "1568"
      },
      "t_array(t_uint256)50_storage": {
        "base": "t_uint256",
        "encoding": "inplace",
        "label": "uint256[50]",
        "numberOfBytes": "1600"
      },
      "t_bool": {
        "encoding": "inplace",
        "label": "bool",
        "numberOfBytes": "1"
      },
      "t_bytes32": {
        "encoding": "inplace",
        "label": "bytes32",
        "numberOfBytes": "32"
      },
      "t_mapping(t_uint256,t_uint256)": {
        "encoding": "mapping",
        "key": "t_uint256",
        "label": "mapping(uint256 => uint256)",
        "numberOfBytes": "32",
        "value": "t_uint256"
      },
      "t_uint256": {
        "encoding": "inplace",
        "label": "uint256",
        "numberOfBytes": "32"
      }
    }
  }
}