{
  "address": "0x5c22fB8c694F41c53dE809b5A3E9663a2e0d337d",
  "abi": [
    {
      "anonymous": false,
      "inputs": [
        {
          "indexed": false,
          "internalType": "uint256",
          "name": "index",
          "type": "uint256"
        },
        {
          "indexed": false,
          "internalType": "address",
          "name": "account",
          "type": "address"
        },
        {
          "indexed": false,
          "internalType": "uint256",
          "name": "amount",
          "type": "uint256"
        }
      ],
      "name": "Claimed",
      "type": "event"
    },
    {
      "anonymous": false,
      "inputs": [
        {
          "indexed": true,
          "internalType": "address",
          "name": "depositor",
          "type": "address"
        },
        {
          "indexed": false,
          "internalType": "uint256",
          "name": "amount",
          "type": "uint256"
        }
      ],
      "name": "Deposit",
      "type": "event"
    },
    {
      "anonymous": false,
      "inputs": [
        {
          "indexed": true,
          "internalType": "address",
          "name": "previousOwner",
          "type": "address"
        },
        {
          "indexed": true,
          "internalType": "address",
          "name": "newOwner",
          "type": "address"
        }
      ],
      "name": "OwnershipTransferred",
      "type": "event"
    },
    {
      "anonymous": false,
      "inputs": [
        {
          "indexed": true,
          "internalType": "address",
          "name": "withdrawer",
          "type": "address"
        },
        {
          "indexed": false,
          "internalType": "uint256",
          "name": "amount",
          "type": "uint256"
        }
      ],
      "name": "WithdrawAllRewardTokens",
      "type": "event"
    },
    {
      "anonymous": false,
      "inputs": [
        {
          "indexed": true,
          "internalType": "address",
          "name": "withdrawer",
          "type": "address"
        },
        {
          "indexed": false,
          "internalType": "uint256",
          "name": "amount",
          "type": "uint256"
        }
      ],
      "name": "WithdrawRewardTokens",
      "type": "event"
    },
    {
      "anonymous": false,
      "inputs": [
        {
          "indexed": true,
          "internalType": "address",
          "name": "withdrawer",
          "type": "address"
        },
        {
          "indexed": false,
          "internalType": "address",
          "name": "token",
          "type": "address"
        },
        {
          "indexed": false,
          "internalType": "uint256",
          "name": "amount",
          "type": "uint256"
        }
      ],
      "name": "WithdrawTokens",
      "type": "event"
    },
    {
      "inputs": [
        {
          "internalType": "uint256",
          "name": "index",
          "type": "uint256"
        },
        {
          "internalType": "address",
          "name": "account",
          "type": "address"
        },
        {
          "internalType": "uint256",
          "name": "amount",
          "type": "uint256"
        },
        {
          "internalType": "bytes32[]",
          "name": "merkleProof",
          "type": "bytes32[]"
        }
      ],
      "name": "claim",
      "outputs": [],
      "stateMutability": "nonpayable",
      "type": "function"
    },
    {
      "inputs": [
        {
          "internalType": "uint256",
          "name": "_amount",
          "type": "uint256"
        }
      ],
      "name": "deposit",
      "outputs": [],
      "stateMutability": "payable",
      "type": "function"
    },
    {
      "inputs": [
        {
          "internalType": "address",
          "name": "wNative_",
          "type": "address"
        },
        {
          "internalType": "address",
          "name": "token_",
          "type": "address"
        },
        {
          "internalType": "bytes32",
          "name": "merkleRoot_",
          "type": "bytes32"
        }
      ],
      "name": "initialize",
      "outputs": [],
      "stateMutability": "nonpayable",
      "type": "function"
    },
    {
      "inputs": [
        {
          "internalType": "uint256",
          "name": "index",
          "type": "uint256"
        }
      ],
      "name": "isClaimed",
      "outputs": [
        {
          "internalType": "bool",
          "name": "",
          "type": "bool"
        }
      ],
      "stateMutability": "view",
      "type": "function"
    },
    {
      "inputs": [],
      "name": "merkleRoot",
      "outputs": [
        {
          "internalType": "bytes32",
          "name": "",
          "type": "bytes32"
        }
      ],
      "stateMutability": "view",
      "type": "function"
    },
    {
      "inputs": [],
      "name": "owner",
      "outputs": [
        {
          "internalType": "address",
          "name": "",
          "type": "address"
        }
      ],
      "stateMutability": "view",
      "type": "function"
    },
    {
      "inputs": [],
      "name": "renounceOwnership",
      "outputs": [],
      "stateMutability": "nonpayable",
      "type": "function"
    },
    {
      "inputs": [],
      "name": "token",
      "outputs": [
        {
          "internalType": "address",
          "name": "",
          "type": "address"
        }
      ],
      "stateMutability": "view",
      "type": "function"
    },
    {
      "inputs": [
        {
          "internalType": "address",
          "name": "newOwner",
          "type": "address"
        }
      ],
      "name": "transferOwnership",
      "outputs": [],
      "stateMutability": "nonpayable",
      "type": "function"
    },
    {
      "inputs": [],
      "name": "wNative",
      "outputs": [
        {
          "internalType": "address",
          "name": "",
          "type": "address"
        }
      ],
      "stateMutability": "view",
      "type": "function"
    },
    {
      "inputs": [],
      "name": "withdrawAllRewardTokens",
      "outputs": [],
      "stateMutability": "nonpayable",
      "type": "function"
    },
    {
      "inputs": [
        {
          "internalType": "uint256",
          "name": "_amount",
          "type": "uint256"
        }
      ],
      "name": "withdrawRewardTokens",
      "outputs": [],
      "stateMutability": "nonpayable",
      "type": "function"
    },
    {
      "inputs": [
        {
          "internalType": "address",
          "name": "_token",
          "type": "address"
        },
        {
          "internalType": "uint256",
          "name": "_amount",
          "type": "uint256"
        }
      ],
      "name": "withdrawTokens",
      "outputs": [],
      "stateMutability": "nonpayable",
      "type": "function"
    },
    {
      "stateMutability": "payable",
      "type": "receive"
    }
  ],
  "transactionHash": "0x2ffcb694e80a4bdc517b75118969d9e804b0a88baeadc3ba11db536902093073",
  "args": [],
  "solcInputHash": "09d29229249fbca6ba5d81e6868b0186",
  "bytecode": "0x608060405234801561001057600080fd5b5061194a806100206000396000f3fe6080604052600436106100d65760003560e01c8063715018a61161007f578063b6b55f2511610059578063b6b55f2514610302578063cb43b2dd1461031f578063f2fde38b14610349578063fc0c546a14610389576100dd565b8063715018a61461029a5780638da5cb5b146102af5780639e34070f146102c4576100dd565b80632eb4a7ab116100b05780632eb4a7ab1461020e5780634f8e3ca8146102355780636133f9851461024a576100dd565b806306b091f9146100e25780632d68efc91461012a5780632e7ba6ef14610168576100dd565b366100dd57005b600080fd5b3480156100ee57600080fd5b506101286004803603604081101561010557600080fd5b5073ffffffffffffffffffffffffffffffffffffffff813516906020013561039e565b005b34801561013657600080fd5b5061013f6104a1565b6040805173ffffffffffffffffffffffffffffffffffffffff9092168252519081900360200190f35b34801561017457600080fd5b506101286004803603608081101561018b57600080fd5b81359173ffffffffffffffffffffffffffffffffffffffff60208201351691604082013591908101906080810160608201356401000000008111156101cf57600080fd5b8201836020820111156101e157600080fd5b8035906020019184602083028401116401000000008311171561020357600080fd5b5090925090506104bd565b34801561021a57600080fd5b50610223610642565b60408051918252519081900360200190f35b34801561024157600080fd5b50610128610648565b34801561025657600080fd5b506101286004803603606081101561026d57600080fd5b5073ffffffffffffffffffffffffffffffffffffffff8135811691602081013590911690604001356107b8565b3480156102a657600080fd5b506101286108dd565b3480156102bb57600080fd5b5061013f6109da565b3480156102d057600080fd5b506102ee600480360360208110156102e757600080fd5b50356109f6565b604080519115158252519081900360200190f35b6101286004803603602081101561031857600080fd5b5035610a1c565b34801561032b57600080fd5b506101286004803603602081101561034257600080fd5b5035610bd0565b34801561035557600080fd5b506101286004803603602081101561036c57600080fd5b503573ffffffffffffffffffffffffffffffffffffffff16610ca1565b34801561039557600080fd5b5061013f610e0f565b6103a6610e2b565b73ffffffffffffffffffffffffffffffffffffffff166103c46109da565b73ffffffffffffffffffffffffffffffffffffffff161461042c576040805162461bcd60e51b815260206004820181905260248201527f4f776e61626c653a2063616c6c6572206973206e6f7420746865206f776e6572604482015290519081900360640190fd5b61044d73ffffffffffffffffffffffffffffffffffffffff83163383610e2f565b6040805173ffffffffffffffffffffffffffffffffffffffff8416815260208101839052815133927f70082d08c003c5341f2401bec1c2ae1dbcdc29ae17e9cc5633fa617caa8acd4c928290030190a25050565b60655473ffffffffffffffffffffffffffffffffffffffff1681565b6104c6856109f6565b156105025760405162461bcd60e51b815260040180806020018281038252602f8152602001806118bc602f913960400191505060405180910390fd5b6000858585604051602001808481526020018373ffffffffffffffffffffffffffffffffffffffff1660601b81526014018281526020019350505050604051602081830303815290604052805190602001209050610597838380806020026020016040519081016040528093929190818152602001838360200280828437600092019190915250506067549150849050610ec1565b6105d25760405162461bcd60e51b81526004018080602001828103825260288152602001806118406028913960400191505060405180910390fd5b6105db86610f6c565b6105e58585610f93565b6040805187815273ffffffffffffffffffffffffffffffffffffffff8716602082015280820186905290517f4ec90e965519d92681267467f775ada5bd214aa92c0dc93d90a5e880ce9ed0269181900360600190a1505050505050565b60675481565b610650610e2b565b73ffffffffffffffffffffffffffffffffffffffff1661066e6109da565b73ffffffffffffffffffffffffffffffffffffffff16146106d6576040805162461bcd60e51b815260206004820181905260248201527f4f776e61626c653a2063616c6c6572206973206e6f7420746865206f776e6572604482015290519081900360640190fd5b606654604080517f70a08231000000000000000000000000000000000000000000000000000000008152306004820152905160009273ffffffffffffffffffffffffffffffffffffffff16916370a08231916024808301926020929190829003018186803b15801561074757600080fd5b505afa15801561075b573d6000803e3d6000fd5b505050506040513d602081101561077157600080fd5b5051905061077f3382610f93565b60408051828152905133917ff45178b726e3a80ecaf42526929019a54e55cb2e8405794fd6ac4464964791df919081900360200190a250565b600054610100900460ff16806107d157506107d161107b565b806107df575060005460ff16155b61081a5760405162461bcd60e51b815260040180806020018281038252602e81526020018061188e602e913960400191505060405180910390fd5b600054610100900460ff1615801561086357600080547fffffffffffffffffffffffffffffffffffffffffffffffffffffffffffffff0061ff0019909116610100171660011790555b61086b61108c565b6065805473ffffffffffffffffffffffffffffffffffffffff8087167fffffffffffffffffffffffff0000000000000000000000000000000000000000928316179092556066805492861692909116919091179055606782905580156108d7576000805461ff00191690555b50505050565b6108e5610e2b565b73ffffffffffffffffffffffffffffffffffffffff166109036109da565b73ffffffffffffffffffffffffffffffffffffffff161461096b576040805162461bcd60e51b815260206004820181905260248201527f4f776e61626c653a2063616c6c6572206973206e6f7420746865206f776e6572604482015290519081900360640190fd5b60335460405160009173ffffffffffffffffffffffffffffffffffffffff16907f8be0079c531659141344cd1fd0a4f28419497f9722a3daafe3b4186f6b6457e0908390a3603380547fffffffffffffffffffffffff0000000000000000000000000000000000000000169055565b60335473ffffffffffffffffffffffffffffffffffffffff1690565b6101008104600090815260686020526040902054600160ff9092169190911b9081161490565b803415610b715760655460665473ffffffffffffffffffffffffffffffffffffffff908116911614610a95576040805162461bcd60e51b815260206004820152601460248201527f746f6b656e206973206e6f7420774e6174697665000000000000000000000000604482015290519081900360640190fd5b348114610ae9576040805162461bcd60e51b815260206004820152601260248201527f76616c756520213d206d73672e76616c75650000000000000000000000000000604482015290519081900360640190fd5b606560009054906101000a900473ffffffffffffffffffffffffffffffffffffffff1673ffffffffffffffffffffffffffffffffffffffff1663d0e30db0346040518263ffffffff1660e01b81526004016000604051808303818588803b158015610b5357600080fd5b505af1158015610b67573d6000803e3d6000fd5b5050505050610b96565b606654610b969073ffffffffffffffffffffffffffffffffffffffff1633308461115c565b60408051838152905133917fe1fffcc4923d04b559f4d29a8bfc6cda04eb5b0d3c460751c2402c5c5cc9109c919081900360200190a25050565b610bd8610e2b565b73ffffffffffffffffffffffffffffffffffffffff16610bf66109da565b73ffffffffffffffffffffffffffffffffffffffff1614610c5e576040805162461bcd60e51b815260206004820181905260248201527f4f776e61626c653a2063616c6c6572206973206e6f7420746865206f776e6572604482015290519081900360640190fd5b610c683382610f93565b60408051828152905133917f0839b8f4eab92bd29cd2593d9c951392f9a4a749a8443860510983cf3968845f919081900360200190a250565b610ca9610e2b565b73ffffffffffffffffffffffffffffffffffffffff16610cc76109da565b73ffffffffffffffffffffffffffffffffffffffff1614610d2f576040805162461bcd60e51b815260206004820181905260248201527f4f776e61626c653a2063616c6c6572206973206e6f7420746865206f776e6572604482015290519081900360640190fd5b73ffffffffffffffffffffffffffffffffffffffff8116610d815760405162461bcd60e51b81526004018080602001828103825260268152602001806117e06026913960400191505060405180910390fd5b60335460405173ffffffffffffffffffffffffffffffffffffffff8084169216907f8be0079c531659141344cd1fd0a4f28419497f9722a3daafe3b4186f6b6457e090600090a3603380547fffffffffffffffffffffffff00000000000000000000000000000000000000001673ffffffffffffffffffffffffffffffffffffffff92909216919091179055565b60665473ffffffffffffffffffffffffffffffffffffffff1681565b3390565b6040805173ffffffffffffffffffffffffffffffffffffffff8416602482015260448082018490528251808303909101815260649091019091526020810180517bffffffffffffffffffffffffffffffffffffffffffffffffffffffff167fa9059cbb00000000000000000000000000000000000000000000000000000000179052610ebc9084906111ed565b505050565b600081815b8551811015610f5f576000868281518110610edd57fe5b60200260200101519050808311610f245782816040516020018083815260200182815260200192505050604051602081830303815290604052805190602001209250610f56565b808360405160200180838152602001828152602001925050506040516020818303038152906040528051906020012092505b50600101610ec6565b50831490505b9392505050565b610100810460009081526068602052604090208054600160ff9093169290921b9091179055565b60655460665473ffffffffffffffffffffffffffffffffffffffff9081169116141561105357606654604080517f2e1a7d4d00000000000000000000000000000000000000000000000000000000815260048101849052905173ffffffffffffffffffffffffffffffffffffffff90921691632e1a7d4d9160248082019260009290919082900301818387803b15801561102c57600080fd5b505af1158015611040573d6000803e3d6000fd5b5050505061104e82826112ab565b611077565b6066546110779073ffffffffffffffffffffffffffffffffffffffff168383610e2f565b5050565b60006110863061139d565b15905090565b600054610100900460ff16806110a557506110a561107b565b806110b3575060005460ff16155b6110ee5760405162461bcd60e51b815260040180806020018281038252602e81526020018061188e602e913960400191505060405180910390fd5b600054610100900460ff1615801561113757600080547fffffffffffffffffffffffffffffffffffffffffffffffffffffffffffffff0061ff0019909116610100171660011790555b61113f6113a3565b611147611461565b8015611159576000805461ff00191690555b50565b6040805173ffffffffffffffffffffffffffffffffffffffff80861660248301528416604482015260648082018490528251808303909101815260849091019091526020810180517bffffffffffffffffffffffffffffffffffffffffffffffffffffffff167f23b872dd000000000000000000000000000000000000000000000000000000001790526108d79085905b606061124f826040518060400160405280602081526020017f5361666545524332303a206c6f772d6c6576656c2063616c6c206661696c65648152508573ffffffffffffffffffffffffffffffffffffffff1661159d9092919063ffffffff16565b805190915015610ebc5780806020019051602081101561126e57600080fd5b5051610ebc5760405162461bcd60e51b815260040180806020018281038252602a8152602001806118eb602a913960400191505060405180910390fd5b80471015611300576040805162461bcd60e51b815260206004820152601d60248201527f416464726573733a20696e73756666696369656e742062616c616e6365000000604482015290519081900360640190fd5b60405160009073ffffffffffffffffffffffffffffffffffffffff84169083908381818185875af1925050503d8060008114611358576040519150601f19603f3d011682016040523d82523d6000602084013e61135d565b606091505b5050905080610ebc5760405162461bcd60e51b815260040180806020018281038252603a815260200180611806603a913960400191505060405180910390fd5b3b151590565b600054610100900460ff16806113bc57506113bc61107b565b806113ca575060005460ff16155b6114055760405162461bcd60e51b815260040180806020018281038252602e81526020018061188e602e913960400191505060405180910390fd5b600054610100900460ff1615801561114757600080547fffffffffffffffffffffffffffffffffffffffffffffffffffffffffffffff0061ff0019909116610100171660011790558015611159576000805461ff001916905550565b600054610100900460ff168061147a575061147a61107b565b80611488575060005460ff16155b6114c35760405162461bcd60e51b815260040180806020018281038252602e81526020018061188e602e913960400191505060405180910390fd5b600054610100900460ff1615801561150c57600080547fffffffffffffffffffffffffffffffffffffffffffffffffffffffffffffff0061ff0019909116610100171660011790555b6000611516610e2b565b603380547fffffffffffffffffffffffff00000000000000000000000000000000000000001673ffffffffffffffffffffffffffffffffffffffff8316908117909155604051919250906000907f8be0079c531659141344cd1fd0a4f28419497f9722a3daafe3b4186f6b6457e0908290a3508015611159576000805461ff001916905550565b60606115ac84846000856115b4565b949350505050565b6060824710156115f55760405162461bcd60e51b81526004018080602001828103825260268152602001806118686026913960400191505060405180910390fd5b6115fe8561139d565b61164f576040805162461bcd60e51b815260206004820152601d60248201527f416464726573733a2063616c6c20746f206e6f6e2d636f6e7472616374000000604482015290519081900360640190fd5b600060608673ffffffffffffffffffffffffffffffffffffffff1685876040518082805190602001908083835b602083106116b957805182527fffffffffffffffffffffffffffffffffffffffffffffffffffffffffffffffe0909201916020918201910161167c565b6001836020036101000a03801982511681845116808217855250505050505090500191505060006040518083038185875af1925050503d806000811461171b576040519150601f19603f3d011682016040523d82523d6000602084013e611720565b606091505b509150915061173082828661173b565b979650505050505050565b6060831561174a575081610f65565b82511561175a5782518084602001fd5b8160405162461bcd60e51b81526004018080602001828103825283818151815260200191508051906020019080838360005b838110156117a457818101518382015260200161178c565b50505050905090810190601f1680156117d15780820380516001836020036101000a031916815260200191505b509250505060405180910390fdfe4f776e61626c653a206e6577206f776e657220697320746865207a65726f2061646472657373416464726573733a20756e61626c6520746f2073656e642076616c75652c20726563697069656e74206d617920686176652072657665727465644d65726b6c654469737472696275746f723a3a636c61696d3a3a20696e76616c69642070726f6f66416464726573733a20696e73756666696369656e742062616c616e636520666f722063616c6c496e697469616c697a61626c653a20636f6e747261637420697320616c726561647920696e697469616c697a65644d65726b6c654469737472696275746f723a3a636c61696d3a3a2064726f7020616c726561647920636c61696d65645361666545524332303a204552433230206f7065726174696f6e20646964206e6f742073756363656564a2646970667358221220e16d384deec51b510bee11eb875ffd80a0ca38a555a10d6243dba063b2b9808064736f6c634300060c0033",
  "devdoc": {
    "kind": "dev",
    "methods": {
      "owner()": {
        "details": "Returns the address of the current owner."
      },
      "renounceOwnership()": {
        "details": "Leaves the contract without owner. It will not be possible to call `onlyOwner` functions anymore. Can only be called by the current owner. NOTE: Renouncing ownership will leave the contract without an owner, thereby removing any functionality that is only available to the owner."
      },
      "transferOwnership(address)": {
        "details": "Transfers ownership of the contract to a new account (`newOwner`). Can only be called by the current owner."
      }
    },
    "version": 1
  },
  "userdoc": {
    "kind": "user",
    "methods": {},
    "version": 1
  },
  "storageLayout": {
    "storage": [
      {
        "astId": 137,
        "contract": "contracts/MerkleDistributor.sol:MerkleDistributor",
        "label": "_initialized",
        "offset": 0,
        "slot": "0",
        "type": "t_bool"
      },
      {
        "astId": 140,
        "contract": "contracts/MerkleDistributor.sol:MerkleDistributor",
        "label": "_initializing",
        "offset": 1,
        "slot": "0",
        "type": "t_bool"
      },
      {
        "astId": 484,
        "contract": "contracts/MerkleDistributor.sol:MerkleDistributor",
        "label": "__gap",
        "offset": 0,
        "slot": "1",
        "type": "t_array(t_uint256)50_storage"
      },
      {
        "astId": 10,
        "contract": "contracts/MerkleDistributor.sol:MerkleDistributor",
        "label": "_owner",
        "offset": 0,
        "slot": "51",
        "type": "t_address"
      },
      {
        "astId": 129,
        "contract": "contracts/MerkleDistributor.sol:MerkleDistributor",
        "label": "__gap",
        "offset": 0,
        "slot": "52",
        "type": "t_array(t_uint256)49_storage"
      },
      {
        "astId": 2425,
        "contract": "contracts/MerkleDistributor.sol:MerkleDistributor",
        "label": "wNative",
        "offset": 0,
        "slot": "101",
        "type": "t_address"
      },
      {
        "astId": 2428,
        "contract": "contracts/MerkleDistributor.sol:MerkleDistributor",
        "label": "token",
        "offset": 0,
        "slot": "102",
        "type": "t_address"
      },
      {
        "astId": 2431,
        "contract": "contracts/MerkleDistributor.sol:MerkleDistributor",
        "label": "merkleRoot",
        "offset": 0,
        "slot": "103",
        "type": "t_bytes32"
      },
      {
        "astId": 2435,
        "contract": "contracts/MerkleDistributor.sol:MerkleDistributor",
        "label": "claimedBitMap",
        "offset": 0,
        "slot": "104",
        "type": "t_mapping(t_uint256,t_uint256)"
      }
    ],
    "types": {
      "t_address": {
        "encoding": "inplace",
        "label": "address",
        "numberOfBytes": "20"
      },
      "t_array(t_uint256)49_storage": {
        "base": "t_uint256",
        "encoding": "inplace",
        "label": "uint256[49]",
        "numberOfBytes": "1568"
      },
      "t_array(t_uint256)50_storage": {
        "base": "t_uint256",
        "encoding": "inplace",
        "label": "uint256[50]",
        "numberOfBytes": "1600"
      },
      "t_bool": {
        "encoding": "inplace",
        "label": "bool",
        "numberOfBytes": "1"
      },
      "t_bytes32": {
        "encoding": "inplace",
        "label": "bytes32",
        "numberOfBytes": "32"
      },
      "t_mapping(t_uint256,t_uint256)": {
        "encoding": "mapping",
        "key": "t_uint256",
        "label": "mapping(uint256 => uint256)",
        "numberOfBytes": "32",
        "value": "t_uint256"
      },
      "t_uint256": {
        "encoding": "inplace",
        "label": "uint256",
        "numberOfBytes": "32"
      }
    }
  }
}