{
  "address": "0xFc49A1EA2AcafAA546d03b74ed4CB1021D1525FF",
  "abi": [
    {
      "anonymous": false,
      "inputs": [
        {
          "indexed": false,
          "internalType": "uint256",
          "name": "index",
          "type": "uint256"
        },
        {
          "indexed": false,
          "internalType": "address",
          "name": "account",
          "type": "address"
        },
        {
          "indexed": false,
          "internalType": "uint256",
          "name": "amount",
          "type": "uint256"
        }
      ],
      "name": "Claimed",
      "type": "event"
    },
    {
      "anonymous": false,
      "inputs": [
        {
          "indexed": true,
          "internalType": "address",
          "name": "depositor",
          "type": "address"
        },
        {
          "indexed": false,
          "internalType": "uint256",
          "name": "amount",
          "type": "uint256"
        }
      ],
      "name": "Deposit",
      "type": "event"
    },
    {
      "anonymous": false,
      "inputs": [
        {
          "indexed": true,
          "internalType": "address",
          "name": "previousOwner",
          "type": "address"
        },
        {
          "indexed": true,
          "internalType": "address",
          "name": "newOwner",
          "type": "address"
        }
      ],
      "name": "OwnershipTransferred",
      "type": "event"
    },
    {
      "anonymous": false,
      "inputs": [
        {
          "indexed": true,
          "internalType": "address",
          "name": "withdrawer",
          "type": "address"
        },
        {
          "indexed": false,
          "internalType": "uint256",
          "name": "amount",
          "type": "uint256"
        }
      ],
      "name": "WithdrawAllRewardTokens",
      "type": "event"
    },
    {
      "anonymous": false,
      "inputs": [
        {
          "indexed": true,
          "internalType": "address",
          "name": "withdrawer",
          "type": "address"
        },
        {
          "indexed": false,
          "internalType": "uint256",
          "name": "amount",
          "type": "uint256"
        }
      ],
      "name": "WithdrawRewardTokens",
      "type": "event"
    },
    {
      "anonymous": false,
      "inputs": [
        {
          "indexed": true,
          "internalType": "address",
          "name": "withdrawer",
          "type": "address"
        },
        {
          "indexed": false,
          "internalType": "address",
          "name": "token",
          "type": "address"
        },
        {
          "indexed": false,
          "internalType": "uint256",
          "name": "amount",
          "type": "uint256"
        }
      ],
      "name": "WithdrawTokens",
      "type": "event"
    },
    {
      "inputs": [
        {
          "internalType": "uint256",
          "name": "index",
          "type": "uint256"
        },
        {
          "internalType": "address",
          "name": "account",
          "type": "address"
        },
        {
          "internalType": "uint256",
          "name": "amount",
          "type": "uint256"
        },
        {
          "internalType": "bytes32[]",
          "name": "merkleProof",
          "type": "bytes32[]"
        }
      ],
      "name": "claim",
      "outputs": [],
      "stateMutability": "nonpayable",
      "type": "function"
    },
    {
      "inputs": [
        {
          "internalType": "uint256",
          "name": "_amount",
          "type": "uint256"
        }
      ],
      "name": "deposit",
      "outputs": [],
      "stateMutability": "nonpayable",
      "type": "function"
    },
    {
      "inputs": [
        {
          "internalType": "address",
          "name": "token_",
          "type": "address"
        },
        {
          "internalType": "bytes32",
          "name": "merkleRoot_",
          "type": "bytes32"
        }
      ],
      "name": "initialize",
      "outputs": [],
      "stateMutability": "nonpayable",
      "type": "function"
    },
    {
      "inputs": [
        {
          "internalType": "uint256",
          "name": "index",
          "type": "uint256"
        }
      ],
      "name": "isClaimed",
      "outputs": [
        {
          "internalType": "bool",
          "name": "",
          "type": "bool"
        }
      ],
      "stateMutability": "view",
      "type": "function"
    },
    {
      "inputs": [],
      "name": "merkleRoot",
      "outputs": [
        {
          "internalType": "bytes32",
          "name": "",
          "type": "bytes32"
        }
      ],
      "stateMutability": "view",
      "type": "function"
    },
    {
      "inputs": [],
      "name": "owner",
      "outputs": [
        {
          "internalType": "address",
          "name": "",
          "type": "address"
        }
      ],
      "stateMutability": "view",
      "type": "function"
    },
    {
      "inputs": [],
      "name": "renounceOwnership",
      "outputs": [],
      "stateMutability": "nonpayable",
      "type": "function"
    },
    {
      "inputs": [],
      "name": "token",
      "outputs": [
        {
          "internalType": "address",
          "name": "",
          "type": "address"
        }
      ],
      "stateMutability": "view",
      "type": "function"
    },
    {
      "inputs": [
        {
          "internalType": "address",
          "name": "newOwner",
          "type": "address"
        }
      ],
      "name": "transferOwnership",
      "outputs": [],
      "stateMutability": "nonpayable",
      "type": "function"
    },
    {
      "inputs": [],
      "name": "withdrawAllRewardTokens",
      "outputs": [],
      "stateMutability": "nonpayable",
      "type": "function"
    },
    {
      "inputs": [
        {
          "internalType": "uint256",
          "name": "_amount",
          "type": "uint256"
        }
      ],
      "name": "withdrawRewardTokens",
      "outputs": [],
      "stateMutability": "nonpayable",
      "type": "function"
    },
    {
      "inputs": [
        {
          "internalType": "address",
          "name": "_token",
          "type": "address"
        },
        {
          "internalType": "uint256",
          "name": "_amount",
          "type": "uint256"
        }
      ],
      "name": "withdrawTokens",
      "outputs": [],
      "stateMutability": "nonpayable",
      "type": "function"
    }
  ],
  "transactionHash": "0x3988aee7b02b261a192e91605b117377e7d607926c3aa167c9b81e138accb453",
  "args": [],
  "solcInputHash": "58197095f076702b1d3be36e65523f3f",
  "bytecode": "0x608060405234801561001057600080fd5b506116c2806100206000396000f3fe608060405234801561001057600080fd5b50600436106100d45760003560e01c80639e34070f11610081578063cb43b2dd1161005b578063cb43b2dd1461028f578063f2fde38b146102ac578063fc0c546a146102df576100d4565b80639e34070f14610208578063b6b55f2514610239578063be13f47c14610256576100d4565b80634f8e3ca8116100b25780634f8e3ca8146101c7578063715018a6146101cf5780638da5cb5b146101d7576100d4565b806306b091f9146100d95780632e7ba6ef146101145780632eb4a7ab146101ad575b600080fd5b610112600480360360408110156100ef57600080fd5b5073ffffffffffffffffffffffffffffffffffffffff81351690602001356102e7565b005b6101126004803603608081101561012a57600080fd5b81359173ffffffffffffffffffffffffffffffffffffffff602082013516916040820135919081019060808101606082013564010000000081111561016e57600080fd5b82018360208201111561018057600080fd5b803590602001918460208302840111640100000000831117156101a257600080fd5b5090925090506103ea565b6101b5610648565b60408051918252519081900360200190f35b61011261064e565b6101126107d9565b6101df6108d6565b6040805173ffffffffffffffffffffffffffffffffffffffff9092168252519081900360200190f35b6102256004803603602081101561021e57600080fd5b50356108f2565b604080519115158252519081900360200190f35b6101126004803603602081101561024f57600080fd5b5035610918565b6101126004803603604081101561026c57600080fd5b5073ffffffffffffffffffffffffffffffffffffffff8135169060200135610a04565b610112600480360360208110156102a557600080fd5b5035610b13565b610112600480360360208110156102c257600080fd5b503573ffffffffffffffffffffffffffffffffffffffff16610bfe565b6101df610d6c565b6102ef610d88565b73ffffffffffffffffffffffffffffffffffffffff1661030d6108d6565b73ffffffffffffffffffffffffffffffffffffffff1614610375576040805162461bcd60e51b815260206004820181905260248201527f4f776e61626c653a2063616c6c6572206973206e6f7420746865206f776e6572604482015290519081900360640190fd5b61039673ffffffffffffffffffffffffffffffffffffffff83163383610d8c565b6040805173ffffffffffffffffffffffffffffffffffffffff8416815260208101839052815133927f70082d08c003c5341f2401bec1c2ae1dbcdc29ae17e9cc5633fa617caa8acd4c928290030190a25050565b6103f3856108f2565b1561042f5760405162461bcd60e51b815260040180806020018281038252602f81526020018061160a602f913960400191505060405180910390fd5b6000858585604051602001808481526020018373ffffffffffffffffffffffffffffffffffffffff1660601b815260140182815260200193505050506040516020818303038152906040528051906020012090506104c4838380806020026020016040519081016040528093929190818152602001838360200280828437600092019190915250506066549150849050610e19565b6104ff5760405162461bcd60e51b815260040180806020018281038252602881526020018061158e6028913960400191505060405180910390fd5b61050886610ec4565b606554604080517fa9059cbb00000000000000000000000000000000000000000000000000000000815273ffffffffffffffffffffffffffffffffffffffff8881166004830152602482018890529151919092169163a9059cbb9160448083019260209291908290030181600087803b15801561058457600080fd5b505af1158015610598573d6000803e3d6000fd5b505050506040513d60208110156105ae57600080fd5b50516105eb5760405162461bcd60e51b815260040180806020018281038252602a815260200180611639602a913960400191505060405180910390fd5b6040805187815273ffffffffffffffffffffffffffffffffffffffff8716602082015280820186905290517f4ec90e965519d92681267467f775ada5bd214aa92c0dc93d90a5e880ce9ed0269181900360600190a1505050505050565b60665481565b610656610d88565b73ffffffffffffffffffffffffffffffffffffffff166106746108d6565b73ffffffffffffffffffffffffffffffffffffffff16146106dc576040805162461bcd60e51b815260206004820181905260248201527f4f776e61626c653a2063616c6c6572206973206e6f7420746865206f776e6572604482015290519081900360640190fd5b606554604080517f70a08231000000000000000000000000000000000000000000000000000000008152306004820152905160009273ffffffffffffffffffffffffffffffffffffffff16916370a08231916024808301926020929190829003018186803b15801561074d57600080fd5b505afa158015610761573d6000803e3d6000fd5b505050506040513d602081101561077757600080fd5b50516065549091506107a09073ffffffffffffffffffffffffffffffffffffffff163383610d8c565b60408051828152905133917ff45178b726e3a80ecaf42526929019a54e55cb2e8405794fd6ac4464964791df919081900360200190a250565b6107e1610d88565b73ffffffffffffffffffffffffffffffffffffffff166107ff6108d6565b73ffffffffffffffffffffffffffffffffffffffff1614610867576040805162461bcd60e51b815260206004820181905260248201527f4f776e61626c653a2063616c6c6572206973206e6f7420746865206f776e6572604482015290519081900360640190fd5b60335460405160009173ffffffffffffffffffffffffffffffffffffffff16907f8be0079c531659141344cd1fd0a4f28419497f9722a3daafe3b4186f6b6457e0908390a3603380547fffffffffffffffffffffffff0000000000000000000000000000000000000000169055565b60335473ffffffffffffffffffffffffffffffffffffffff1690565b6101008104600090815260676020526040902054600160ff9092169190911b9081161490565b610920610d88565b73ffffffffffffffffffffffffffffffffffffffff1661093e6108d6565b73ffffffffffffffffffffffffffffffffffffffff16146109a6576040805162461bcd60e51b815260206004820181905260248201527f4f776e61626c653a2063616c6c6572206973206e6f7420746865206f776e6572604482015290519081900360640190fd5b6065546109cb9073ffffffffffffffffffffffffffffffffffffffff16333084610eeb565b60408051828152905133917fe1fffcc4923d04b559f4d29a8bfc6cda04eb5b0d3c460751c2402c5c5cc9109c919081900360200190a250565b600054610100900460ff1680610a1d5750610a1d610f86565b80610a2b575060005460ff16155b610a665760405162461bcd60e51b815260040180806020018281038252602e8152602001806115dc602e913960400191505060405180910390fd5b600054610100900460ff16158015610aaf57600080547fffffffffffffffffffffffffffffffffffffffffffffffffffffffffffffff0061ff0019909116610100171660011790555b610ab7610f97565b606580547fffffffffffffffffffffffff00000000000000000000000000000000000000001673ffffffffffffffffffffffffffffffffffffffff851617905560668290558015610b0e576000805461ff00191690555b505050565b610b1b610d88565b73ffffffffffffffffffffffffffffffffffffffff16610b396108d6565b73ffffffffffffffffffffffffffffffffffffffff1614610ba1576040805162461bcd60e51b815260206004820181905260248201527f4f776e61626c653a2063616c6c6572206973206e6f7420746865206f776e6572604482015290519081900360640190fd5b606554610bc59073ffffffffffffffffffffffffffffffffffffffff163383610d8c565b60408051828152905133917f0839b8f4eab92bd29cd2593d9c951392f9a4a749a8443860510983cf3968845f919081900360200190a250565b610c06610d88565b73ffffffffffffffffffffffffffffffffffffffff16610c246108d6565b73ffffffffffffffffffffffffffffffffffffffff1614610c8c576040805162461bcd60e51b815260206004820181905260248201527f4f776e61626c653a2063616c6c6572206973206e6f7420746865206f776e6572604482015290519081900360640190fd5b73ffffffffffffffffffffffffffffffffffffffff8116610cde5760405162461bcd60e51b81526004018080602001828103825260268152602001806115686026913960400191505060405180910390fd5b60335460405173ffffffffffffffffffffffffffffffffffffffff8084169216907f8be0079c531659141344cd1fd0a4f28419497f9722a3daafe3b4186f6b6457e090600090a3603380547fffffffffffffffffffffffff00000000000000000000000000000000000000001673ffffffffffffffffffffffffffffffffffffffff92909216919091179055565b60655473ffffffffffffffffffffffffffffffffffffffff1681565b3390565b6040805173ffffffffffffffffffffffffffffffffffffffff8416602482015260448082018490528251808303909101815260649091019091526020810180517bffffffffffffffffffffffffffffffffffffffffffffffffffffffff167fa9059cbb00000000000000000000000000000000000000000000000000000000179052610b0e908490611067565b600081815b8551811015610eb7576000868281518110610e3557fe5b60200260200101519050808311610e7c5782816040516020018083815260200182815260200192505050604051602081830303815290604052805190602001209250610eae565b808360405160200180838152602001828152602001925050506040516020818303038152906040528051906020012092505b50600101610e1e565b50831490505b9392505050565b610100810460009081526067602052604090208054600160ff9093169290921b9091179055565b6040805173ffffffffffffffffffffffffffffffffffffffff80861660248301528416604482015260648082018490528251808303909101815260849091019091526020810180517bffffffffffffffffffffffffffffffffffffffffffffffffffffffff167f23b872dd00000000000000000000000000000000000000000000000000000000179052610f80908590611067565b50505050565b6000610f9130611125565b15905090565b600054610100900460ff1680610fb05750610fb0610f86565b80610fbe575060005460ff16155b610ff95760405162461bcd60e51b815260040180806020018281038252602e8152602001806115dc602e913960400191505060405180910390fd5b600054610100900460ff1615801561104257600080547fffffffffffffffffffffffffffffffffffffffffffffffffffffffffffffff0061ff0019909116610100171660011790555b61104a61112b565b6110526111e9565b8015611064576000805461ff00191690555b50565b60606110c9826040518060400160405280602081526020017f5361666545524332303a206c6f772d6c6576656c2063616c6c206661696c65648152508573ffffffffffffffffffffffffffffffffffffffff166113259092919063ffffffff16565b805190915015610b0e578080602001905160208110156110e857600080fd5b5051610b0e5760405162461bcd60e51b815260040180806020018281038252602a815260200180611663602a913960400191505060405180910390fd5b3b151590565b600054610100900460ff16806111445750611144610f86565b80611152575060005460ff16155b61118d5760405162461bcd60e51b815260040180806020018281038252602e8152602001806115dc602e913960400191505060405180910390fd5b600054610100900460ff1615801561105257600080547fffffffffffffffffffffffffffffffffffffffffffffffffffffffffffffff0061ff0019909116610100171660011790558015611064576000805461ff001916905550565b600054610100900460ff16806112025750611202610f86565b80611210575060005460ff16155b61124b5760405162461bcd60e51b815260040180806020018281038252602e8152602001806115dc602e913960400191505060405180910390fd5b600054610100900460ff1615801561129457600080547fffffffffffffffffffffffffffffffffffffffffffffffffffffffffffffff0061ff0019909116610100171660011790555b600061129e610d88565b603380547fffffffffffffffffffffffff00000000000000000000000000000000000000001673ffffffffffffffffffffffffffffffffffffffff8316908117909155604051919250906000907f8be0079c531659141344cd1fd0a4f28419497f9722a3daafe3b4186f6b6457e0908290a3508015611064576000805461ff001916905550565b6060611334848460008561133c565b949350505050565b60608247101561137d5760405162461bcd60e51b81526004018080602001828103825260268152602001806115b66026913960400191505060405180910390fd5b61138685611125565b6113d7576040805162461bcd60e51b815260206004820152601d60248201527f416464726573733a2063616c6c20746f206e6f6e2d636f6e7472616374000000604482015290519081900360640190fd5b600060608673ffffffffffffffffffffffffffffffffffffffff1685876040518082805190602001908083835b6020831061144157805182527fffffffffffffffffffffffffffffffffffffffffffffffffffffffffffffffe09092019160209182019101611404565b6001836020036101000a03801982511681845116808217855250505050505090500191505060006040518083038185875af1925050503d80600081146114a3576040519150601f19603f3d011682016040523d82523d6000602084013e6114a8565b606091505b50915091506114b88282866114c3565b979650505050505050565b606083156114d2575081610ebd565b8251156114e25782518084602001fd5b8160405162461bcd60e51b81526004018080602001828103825283818151815260200191508051906020019080838360005b8381101561152c578181015183820152602001611514565b50505050905090810190601f1680156115595780820380516001836020036101000a031916815260200191505b509250505060405180910390fdfe4f776e61626c653a206e6577206f776e657220697320746865207a65726f20616464726573734d65726b6c654469737472696275746f723a3a636c61696d3a3a20696e76616c69642070726f6f66416464726573733a20696e73756666696369656e742062616c616e636520666f722063616c6c496e697469616c697a61626c653a20636f6e747261637420697320616c726561647920696e697469616c697a65644d65726b6c654469737472696275746f723a3a636c61696d3a3a2064726f7020616c726561647920636c61696d65644d65726b6c654469737472696275746f723a3a636c61696d3a3a207472616e73666572206661696c65645361666545524332303a204552433230206f7065726174696f6e20646964206e6f742073756363656564a26469706673582212204dfda050b12ef5b8dbffaaaf68337614a64b31aa14ddd179182e4388e8450ba964736f6c634300060c0033",
  "devdoc": {
    "kind": "dev",
    "methods": {
      "owner()": {
        "details": "Returns the address of the current owner."
      },
      "renounceOwnership()": {
        "details": "Leaves the contract without owner. It will not be possible to call `onlyOwner` functions anymore. Can only be called by the current owner. NOTE: Renouncing ownership will leave the contract without an owner, thereby removing any functionality that is only available to the owner."
      },
      "transferOwnership(address)": {
        "details": "Transfers ownership of the contract to a new account (`newOwner`). Can only be called by the current owner."
      }
    },
    "version": 1
  },
  "userdoc": {
    "kind": "user",
    "methods": {},
    "version": 1
  },
  "storageLayout": {
    "storage": [
      {
        "astId": 137,
        "contract": "contracts/MerkleDistributor.sol:MerkleDistributor",
        "label": "_initialized",
        "offset": 0,
        "slot": "0",
        "type": "t_bool"
      },
      {
        "astId": 140,
        "contract": "contracts/MerkleDistributor.sol:MerkleDistributor",
        "label": "_initializing",
        "offset": 1,
        "slot": "0",
        "type": "t_bool"
      },
      {
        "astId": 484,
        "contract": "contracts/MerkleDistributor.sol:MerkleDistributor",
        "label": "__gap",
        "offset": 0,
        "slot": "1",
        "type": "t_array(t_uint256)50_storage"
      },
      {
        "astId": 10,
        "contract": "contracts/MerkleDistributor.sol:MerkleDistributor",
        "label": "_owner",
        "offset": 0,
        "slot": "51",
        "type": "t_address"
      },
      {
        "astId": 129,
        "contract": "contracts/MerkleDistributor.sol:MerkleDistributor",
        "label": "__gap",
        "offset": 0,
        "slot": "52",
        "type": "t_array(t_uint256)49_storage"
      },
      {
        "astId": 2343,
        "contract": "contracts/MerkleDistributor.sol:MerkleDistributor",
        "label": "token",
        "offset": 0,
        "slot": "101",
        "type": "t_address"
      },
      {
        "astId": 2346,
        "contract": "contracts/MerkleDistributor.sol:MerkleDistributor",
        "label": "merkleRoot",
        "offset": 0,
        "slot": "102",
        "type": "t_bytes32"
      },
      {
        "astId": 2350,
        "contract": "contracts/MerkleDistributor.sol:MerkleDistributor",
        "label": "claimedBitMap",
        "offset": 0,
        "slot": "103",
        "type": "t_mapping(t_uint256,t_uint256)"
      }
    ],
    "types": {
      "t_address": {
        "encoding": "inplace",
        "label": "address",
        "numberOfBytes": "20"
      },
      "t_array(t_uint256)49_storage": {
        "base": "t_uint256",
        "encoding": "inplace",
        "label": "uint256[49]",
        "numberOfBytes": "1568"
      },
      "t_array(t_uint256)50_storage": {
        "base": "t_uint256",
        "encoding": "inplace",
        "label": "uint256[50]",
        "numberOfBytes": "1600"
      },
      "t_bool": {
        "encoding": "inplace",
        "label": "bool",
        "numberOfBytes": "1"
      },
      "t_bytes32": {
        "encoding": "inplace",
        "label": "bytes32",
        "numberOfBytes": "32"
      },
      "t_mapping(t_uint256,t_uint256)": {
        "encoding": "mapping",
        "key": "t_uint256",
        "label": "mapping(uint256 => uint256)",
        "numberOfBytes": "32",
        "value": "t_uint256"
      },
      "t_uint256": {
        "encoding": "inplace",
        "label": "uint256",
        "numberOfBytes": "32"
      }
    }
  }
}